{
  "_format": "hh-sol-artifact-1",
  "contractName": "MyEpicNFT",
  "sourceName": "contracts/MyEpicNFT.sol",
  "abi": [
    {
      "inputs": [],
      "stateMutability": "nonpayable",
      "type": "constructor"
    },
    {
      "anonymous": false,
      "inputs": [
        {
          "indexed": true,
          "internalType": "address",
          "name": "owner",
          "type": "address"
        },
        {
          "indexed": true,
          "internalType": "address",
          "name": "approved",
          "type": "address"
        },
        {
          "indexed": true,
          "internalType": "uint256",
          "name": "tokenId",
          "type": "uint256"
        }
      ],
      "name": "Approval",
      "type": "event"
    },
    {
      "anonymous": false,
      "inputs": [
        {
          "indexed": true,
          "internalType": "address",
          "name": "owner",
          "type": "address"
        },
        {
          "indexed": true,
          "internalType": "address",
          "name": "operator",
          "type": "address"
        },
        {
          "indexed": false,
          "internalType": "bool",
          "name": "approved",
          "type": "bool"
        }
      ],
      "name": "ApprovalForAll",
      "type": "event"
    },
    {
      "anonymous": false,
      "inputs": [
        {
          "indexed": true,
          "internalType": "address",
          "name": "from",
          "type": "address"
        },
        {
          "indexed": true,
          "internalType": "address",
          "name": "to",
          "type": "address"
        },
        {
          "indexed": true,
          "internalType": "uint256",
          "name": "tokenId",
          "type": "uint256"
        }
      ],
      "name": "Transfer",
      "type": "event"
    },
    {
      "inputs": [
        {
          "internalType": "address",
          "name": "to",
          "type": "address"
        },
        {
          "internalType": "uint256",
          "name": "tokenId",
          "type": "uint256"
        }
      ],
      "name": "approve",
      "outputs": [],
      "stateMutability": "nonpayable",
      "type": "function"
    },
    {
      "inputs": [
        {
          "internalType": "address",
          "name": "owner",
          "type": "address"
        }
      ],
      "name": "balanceOf",
      "outputs": [
        {
          "internalType": "uint256",
          "name": "",
          "type": "uint256"
        }
      ],
      "stateMutability": "view",
      "type": "function"
    },
    {
      "inputs": [
        {
          "internalType": "uint256",
          "name": "tokenId",
          "type": "uint256"
        }
      ],
      "name": "getApproved",
      "outputs": [
        {
          "internalType": "address",
          "name": "",
          "type": "address"
        }
      ],
      "stateMutability": "view",
      "type": "function"
    },
    {
      "inputs": [
        {
          "internalType": "address",
          "name": "owner",
          "type": "address"
        },
        {
          "internalType": "address",
          "name": "operator",
          "type": "address"
        }
      ],
      "name": "isApprovedForAll",
      "outputs": [
        {
          "internalType": "bool",
          "name": "",
          "type": "bool"
        }
      ],
      "stateMutability": "view",
      "type": "function"
    },
    {
      "inputs": [],
      "name": "makeAnEpicNFT",
      "outputs": [],
      "stateMutability": "nonpayable",
      "type": "function"
    },
    {
      "inputs": [],
      "name": "name",
      "outputs": [
        {
          "internalType": "string",
          "name": "",
          "type": "string"
        }
      ],
      "stateMutability": "view",
      "type": "function"
    },
    {
      "inputs": [
        {
          "internalType": "uint256",
          "name": "tokenId",
          "type": "uint256"
        }
      ],
      "name": "ownerOf",
      "outputs": [
        {
          "internalType": "address",
          "name": "",
          "type": "address"
        }
      ],
      "stateMutability": "view",
      "type": "function"
    },
    {
      "inputs": [
        {
          "internalType": "uint256",
          "name": "tokenId",
          "type": "uint256"
        }
      ],
      "name": "randomBackgroundColor",
      "outputs": [
        {
          "internalType": "string",
          "name": "",
          "type": "string"
        }
      ],
      "stateMutability": "view",
      "type": "function"
    },
    {
      "inputs": [
        {
          "internalType": "address",
          "name": "from",
          "type": "address"
        },
        {
          "internalType": "address",
          "name": "to",
          "type": "address"
        },
        {
          "internalType": "uint256",
          "name": "tokenId",
          "type": "uint256"
        }
      ],
      "name": "safeTransferFrom",
      "outputs": [],
      "stateMutability": "nonpayable",
      "type": "function"
    },
    {
      "inputs": [
        {
          "internalType": "address",
          "name": "from",
          "type": "address"
        },
        {
          "internalType": "address",
          "name": "to",
          "type": "address"
        },
        {
          "internalType": "uint256",
          "name": "tokenId",
          "type": "uint256"
        },
        {
          "internalType": "bytes",
          "name": "_data",
          "type": "bytes"
        }
      ],
      "name": "safeTransferFrom",
      "outputs": [],
      "stateMutability": "nonpayable",
      "type": "function"
    },
    {
      "inputs": [
        {
          "internalType": "address",
          "name": "operator",
          "type": "address"
        },
        {
          "internalType": "bool",
          "name": "approved",
          "type": "bool"
        }
      ],
      "name": "setApprovalForAll",
      "outputs": [],
      "stateMutability": "nonpayable",
      "type": "function"
    },
    {
      "inputs": [
        {
          "internalType": "bytes4",
          "name": "interfaceId",
          "type": "bytes4"
        }
      ],
      "name": "supportsInterface",
      "outputs": [
        {
          "internalType": "bool",
          "name": "",
          "type": "bool"
        }
      ],
      "stateMutability": "view",
      "type": "function"
    },
    {
      "inputs": [],
      "name": "symbol",
      "outputs": [
        {
          "internalType": "string",
          "name": "",
          "type": "string"
        }
      ],
      "stateMutability": "view",
      "type": "function"
    },
    {
      "inputs": [
        {
          "internalType": "uint256",
          "name": "tokenId",
          "type": "uint256"
        }
      ],
      "name": "tokenURI",
      "outputs": [
        {
          "internalType": "string",
          "name": "",
          "type": "string"
        }
      ],
      "stateMutability": "view",
      "type": "function"
    },
    {
      "inputs": [
        {
          "internalType": "address",
          "name": "from",
          "type": "address"
        },
        {
          "internalType": "address",
          "name": "to",
          "type": "address"
        },
        {
          "internalType": "uint256",
          "name": "tokenId",
          "type": "uint256"
        }
      ],
      "name": "transferFrom",
      "outputs": [],
      "stateMutability": "nonpayable",
      "type": "function"
    }
  ],
  "bytecode": "0x608060405260405180610de00160405280610da88152602001620043d1610da89139600890805190602001906200003892919062000a9f565b506040518060a00160405280607781526020016200435a60779139600990805190602001906200006a92919062000a9f565b506040518061048001604052806040518060400160405280600181526020017f300000000000000000000000000000000000000000000000000000000000000081525081526020016040518060400160405280600181526020017f310000000000000000000000000000000000000000000000000000000000000081525081526020016040518060400160405280600181526020017f320000000000000000000000000000000000000000000000000000000000000081525081526020016040518060400160405280600181526020017f330000000000000000000000000000000000000000000000000000000000000081525081526020016040518060400160405280600181526020017f340000000000000000000000000000000000000000000000000000000000000081525081526020016040518060400160405280600181526020017f350000000000000000000000000000000000000000000000000000000000000081525081526020016040518060400160405280600181526020017f360000000000000000000000000000000000000000000000000000000000000081525081526020016040518060400160405280600181526020017f370000000000000000000000000000000000000000000000000000000000000081525081526020016040518060400160405280600181526020017f380000000000000000000000000000000000000000000000000000000000000081525081526020016040518060400160405280600181526020017f390000000000000000000000000000000000000000000000000000000000000081525081526020016040518060400160405280600181526020017f610000000000000000000000000000000000000000000000000000000000000081525081526020016040518060400160405280600181526020017f620000000000000000000000000000000000000000000000000000000000000081525081526020016040518060400160405280600181526020017f630000000000000000000000000000000000000000000000000000000000000081525081526020016040518060400160405280600181526020017f640000000000000000000000000000000000000000000000000000000000000081525081526020016040518060400160405280600181526020017f650000000000000000000000000000000000000000000000000000000000000081525081526020016040518060400160405280600181526020017f660000000000000000000000000000000000000000000000000000000000000081525081526020016040518060400160405280600181526020017f670000000000000000000000000000000000000000000000000000000000000081525081526020016040518060400160405280600181526020017f680000000000000000000000000000000000000000000000000000000000000081525081526020016040518060400160405280600181526020017f690000000000000000000000000000000000000000000000000000000000000081525081526020016040518060400160405280600181526020017f6a0000000000000000000000000000000000000000000000000000000000000081525081526020016040518060400160405280600181526020017f6b0000000000000000000000000000000000000000000000000000000000000081525081526020016040518060400160405280600181526020017f6c0000000000000000000000000000000000000000000000000000000000000081525081526020016040518060400160405280600181526020017f6d0000000000000000000000000000000000000000000000000000000000000081525081526020016040518060400160405280600181526020017f6e0000000000000000000000000000000000000000000000000000000000000081525081526020016040518060400160405280600181526020017f6f0000000000000000000000000000000000000000000000000000000000000081525081526020016040518060400160405280600181526020017f700000000000000000000000000000000000000000000000000000000000000081525081526020016040518060400160405280600181526020017f710000000000000000000000000000000000000000000000000000000000000081525081526020016040518060400160405280600181526020017f720000000000000000000000000000000000000000000000000000000000000081525081526020016040518060400160405280600181526020017f730000000000000000000000000000000000000000000000000000000000000081525081526020016040518060400160405280600181526020017f740000000000000000000000000000000000000000000000000000000000000081525081526020016040518060400160405280600181526020017f750000000000000000000000000000000000000000000000000000000000000081525081526020016040518060400160405280600181526020017f760000000000000000000000000000000000000000000000000000000000000081525081526020016040518060400160405280600181526020017f770000000000000000000000000000000000000000000000000000000000000081525081526020016040518060400160405280600181526020017f780000000000000000000000000000000000000000000000000000000000000081525081526020016040518060400160405280600181526020017f790000000000000000000000000000000000000000000000000000000000000081525081526020016040518060400160405280600181526020017f7a00000000000000000000000000000000000000000000000000000000000000815250815250600a906024620008d392919062000b30565b50348015620008e157600080fd5b506040518060400160405280600e81526020017f46415354424c4f434b434841494e0000000000000000000000000000000000008152506040518060400160405280600781526020017f435050464153540000000000000000000000000000000000000000000000000081525081600090805190602001906200096692919062000a9f565b5080600190805190602001906200097f92919062000a9f565b505050620009cd6040518060400160405280601e81526020017f54686973206973206d79204e465420636f6e74726163742e20576f6168210000815250620009d360201b62000de91760201c565b62000d51565b62000a7381604051602401620009ea919062000c65565b6040516020818303038152906040527f41304fac000000000000000000000000000000000000000000000000000000007bffffffffffffffffffffffffffffffffffffffffffffffffffffffff19166020820180517bffffffffffffffffffffffffffffffffffffffffffffffffffffffff838183161783525050505062000a7660201b60201c565b50565b60008151905060006a636f6e736f6c652e6c6f679050602083016000808483855afa5050505050565b82805462000aad9062000cdb565b90600052602060002090601f01602090048101928262000ad1576000855562000b1d565b82601f1062000aec57805160ff191683800117855562000b1d565b8280016001018555821562000b1d579182015b8281111562000b1c57825182559160200191906001019062000aff565b5b50905062000b2c919062000b97565b5090565b82805482825590600052602060002090810192821562000b84579160200282015b8281111562000b8357825182908051906020019062000b7292919062000a9f565b509160200191906001019062000b51565b5b50905062000b93919062000bb6565b5090565b5b8082111562000bb257600081600090555060010162000b98565b5090565b5b8082111562000bda576000818162000bd0919062000bde565b5060010162000bb7565b5090565b50805462000bec9062000cdb565b6000825580601f1062000c00575062000c21565b601f01602090049060005260206000209081019062000c20919062000b97565b5b50565b600062000c318262000c89565b62000c3d818562000c94565b935062000c4f81856020860162000ca5565b62000c5a8162000d40565b840191505092915050565b6000602082019050818103600083015262000c81818462000c24565b905092915050565b600081519050919050565b600082825260208201905092915050565b60005b8381101562000cc557808201518184015260208101905062000ca8565b8381111562000cd5576000848401525b50505050565b6000600282049050600182168062000cf457607f821691505b6020821081141562000d0b5762000d0a62000d11565b5b50919050565b7f4e487b7100000000000000000000000000000000000000000000000000000000600052602260045260246000fd5b6000601f19601f8301169050919050565b6135f98062000d616000396000f3fe608060405234801561001057600080fd5b50600436106100f55760003560e01c806370a0823111610097578063c87b56dd11610066578063c87b56dd14610282578063cda6cfe9146102b2578063de9d132f146102e2578063e985e9c5146102ec576100f5565b806370a08231146101fc57806395d89b411461022c578063a22cb4651461024a578063b88d4fde14610266576100f5565b8063095ea7b3116100d3578063095ea7b31461017857806323b872dd1461019457806342842e0e146101b05780636352211e146101cc576100f5565b806301ffc9a7146100fa57806306fdde031461012a578063081812fc14610148575b600080fd5b610114600480360381019061010f9190612217565b61031c565b604051610121919061287f565b60405180910390f35b6101326103fe565b60405161013f919061289a565b60405180910390f35b610162600480360381019061015d9190612269565b610490565b60405161016f9190612818565b60405180910390f35b610192600480360381019061018d91906121db565b610515565b005b6101ae60048036038101906101a991906120d5565b61062d565b005b6101ca60048036038101906101c591906120d5565b61068d565b005b6101e660048036038101906101e19190612269565b6106ad565b6040516101f39190612818565b60405180910390f35b61021660048036038101906102119190612070565b61075f565b6040516102239190612afa565b60405180910390f35b610234610817565b604051610241919061289a565b60405180910390f35b610264600480360381019061025f919061219f565b6108a9565b005b610280600480360381019061027b9190612124565b6108bf565b005b61029c60048036038101906102979190612269565b610921565b6040516102a9919061289a565b60405180910390f35b6102cc60048036038101906102c79190612269565b610a73565b6040516102d9919061289a565b60405180910390f35b6102ea610be7565b005b61030660048036038101906103019190612099565b610d55565b604051610313919061287f565b60405180910390f35b60007f80ac58cd000000000000000000000000000000000000000000000000000000007bffffffffffffffffffffffffffffffffffffffffffffffffffffffff1916827bffffffffffffffffffffffffffffffffffffffffffffffffffffffff191614806103e757507f5b5e139f000000000000000000000000000000000000000000000000000000007bffffffffffffffffffffffffffffffffffffffffffffffffffffffff1916827bffffffffffffffffffffffffffffffffffffffffffffffffffffffff1916145b806103f757506103f682610e82565b5b9050919050565b60606000805461040d90612d8e565b80601f016020809104026020016040519081016040528092919081815260200182805461043990612d8e565b80156104865780601f1061045b57610100808354040283529160200191610486565b820191906000526020600020905b81548152906001019060200180831161046957829003601f168201915b5050505050905090565b600061049b82610eec565b6104da576040517f08c379a00000000000000000000000000000000000000000000000000000000081526004016104d190612a7a565b60405180910390fd5b6004600083815260200190815260200160002060009054906101000a900473ffffffffffffffffffffffffffffffffffffffff169050919050565b6000610520826106ad565b90508073ffffffffffffffffffffffffffffffffffffffff168373ffffffffffffffffffffffffffffffffffffffff161415610591576040517f08c379a000000000000000000000000000000000000000000000000000000000815260040161058890612aba565b60405180910390fd5b8073ffffffffffffffffffffffffffffffffffffffff166105b0610f58565b73ffffffffffffffffffffffffffffffffffffffff1614806105df57506105de816105d9610f58565b610d55565b5b61061e576040517f08c379a0000000000000000000000000000000000000000000000000000000008152600401610615906129ba565b60405180910390fd5b6106288383610f60565b505050565b61063e610638610f58565b82611019565b61067d576040517f08c379a000000000000000000000000000000000000000000000000000000000815260040161067490612ada565b60405180910390fd5b6106888383836110f7565b505050565b6106a8838383604051806020016040528060008152506108bf565b505050565b6000806002600084815260200190815260200160002060009054906101000a900473ffffffffffffffffffffffffffffffffffffffff169050600073ffffffffffffffffffffffffffffffffffffffff168173ffffffffffffffffffffffffffffffffffffffff161415610756576040517f08c379a000000000000000000000000000000000000000000000000000000000815260040161074d906129fa565b60405180910390fd5b80915050919050565b60008073ffffffffffffffffffffffffffffffffffffffff168273ffffffffffffffffffffffffffffffffffffffff1614156107d0576040517f08c379a00000000000000000000000000000000000000000000000000000000081526004016107c7906129da565b60405180910390fd5b600360008373ffffffffffffffffffffffffffffffffffffffff1673ffffffffffffffffffffffffffffffffffffffff168152602001908152602001600020549050919050565b60606001805461082690612d8e565b80601f016020809104026020016040519081016040528092919081815260200182805461085290612d8e565b801561089f5780601f106108745761010080835404028352916020019161089f565b820191906000526020600020905b81548152906001019060200180831161088257829003601f168201915b5050505050905090565b6108bb6108b4610f58565b838361135e565b5050565b6108d06108ca610f58565b83611019565b61090f576040517f08c379a000000000000000000000000000000000000000000000000000000000815260040161090690612ada565b60405180910390fd5b61091b848484846114cb565b50505050565b606061092c82610eec565b61096b576040517f08c379a000000000000000000000000000000000000000000000000000000000815260040161096290612a5a565b60405180910390fd5b600060066000848152602001908152602001600020805461098b90612d8e565b80601f01602080910402602001604051908101604052809291908181526020018280546109b790612d8e565b8015610a045780601f106109d957610100808354040283529160200191610a04565b820191906000526020600020905b8154815290600101906020018083116109e757829003601f168201915b505050505090506000610a15611527565b9050600081511415610a2b578192505050610a6e565b600082511115610a60578082604051602001610a489291906126fa565b60405160208183030381529060405292505050610a6e565b610a698461153e565b925050505b919050565b60608060005b6003811015610bdd576000610abe610a90866115e5565b610a99846115e5565b604051602001610aaa929190612777565b604051602081830303815290604052611792565b9050600a8054905081610ad19190612e44565b90506000600a8281548110610b0f577f4e487b7100000000000000000000000000000000000000000000000000000000600052603260045260246000fd5b906000526020600020018054610b2490612d8e565b80601f0160208091040260200160405190810160405280929190818152602001828054610b5090612d8e565b8015610b9d5780601f10610b7257610100808354040283529160200191610b9d565b820191906000526020600020905b815481529060010190602001808311610b8057829003601f168201915b505050505090508381604051602001610bb79291906126fa565b604051602081830303815290604052935050508080610bd590612df1565b915050610a79565b5080915050919050565b6000610bf360076117c7565b905060006009610c0283610a73565b6008604051602001610c1693929190612746565b60405160208183030381529060405290506000610c63610c35846115e5565b610c3e846117d5565b604051602001610c4f9291906127a6565b6040516020818303038152906040526117d5565b9050600081604051602001610c7891906127f6565b6040516020818303038152906040529050610cc76040518060400160405280601581526020017f0a2d2d2d2d2d2d2d2d2d2d2d2d2d2d2d2d2d2d2d2d0000000000000000000000815250610de9565b610cd081610de9565b610d0e6040518060400160405280601581526020017f2d2d2d2d2d2d2d2d2d2d2d2d2d2d2d2d2d2d2d2d0a0000000000000000000000815250610de9565b610d183385611993565b610d2284826119b1565b610d2c6007611a25565b610d4f60405180606001604052806025815260200161355f602591398533611a3b565b50505050565b6000600560008473ffffffffffffffffffffffffffffffffffffffff1673ffffffffffffffffffffffffffffffffffffffff16815260200190815260200160002060008373ffffffffffffffffffffffffffffffffffffffff1673ffffffffffffffffffffffffffffffffffffffff16815260200190815260200160002060009054906101000a900460ff16905092915050565b610e7f81604051602401610dfd919061289a565b6040516020818303038152906040527f41304fac000000000000000000000000000000000000000000000000000000007bffffffffffffffffffffffffffffffffffffffffffffffffffffffff19166020820180517bffffffffffffffffffffffffffffffffffffffffffffffffffffffff8381831617835250505050611ada565b50565b60007f01ffc9a7000000000000000000000000000000000000000000000000000000007bffffffffffffffffffffffffffffffffffffffffffffffffffffffff1916827bffffffffffffffffffffffffffffffffffffffffffffffffffffffff1916149050919050565b60008073ffffffffffffffffffffffffffffffffffffffff166002600084815260200190815260200160002060009054906101000a900473ffffffffffffffffffffffffffffffffffffffff1673ffffffffffffffffffffffffffffffffffffffff1614159050919050565b600033905090565b816004600083815260200190815260200160002060006101000a81548173ffffffffffffffffffffffffffffffffffffffff021916908373ffffffffffffffffffffffffffffffffffffffff160217905550808273ffffffffffffffffffffffffffffffffffffffff16610fd3836106ad565b73ffffffffffffffffffffffffffffffffffffffff167f8c5be1e5ebec7d5bd14f71427d1e84f3dd0314c0f7b2291e5b200ac8c7c3b92560405160405180910390a45050565b600061102482610eec565b611063576040517f08c379a000000000000000000000000000000000000000000000000000000000815260040161105a9061299a565b60405180910390fd5b600061106e836106ad565b90508073ffffffffffffffffffffffffffffffffffffffff168473ffffffffffffffffffffffffffffffffffffffff1614806110dd57508373ffffffffffffffffffffffffffffffffffffffff166110c584610490565b73ffffffffffffffffffffffffffffffffffffffff16145b806110ee57506110ed8185610d55565b5b91505092915050565b8273ffffffffffffffffffffffffffffffffffffffff16611117826106ad565b73ffffffffffffffffffffffffffffffffffffffff161461116d576040517f08c379a00000000000000000000000000000000000000000000000000000000081526004016111649061291a565b60405180910390fd5b600073ffffffffffffffffffffffffffffffffffffffff168273ffffffffffffffffffffffffffffffffffffffff1614156111dd576040517f08c379a00000000000000000000000000000000000000000000000000000000081526004016111d49061295a565b60405180910390fd5b6111e8838383611b03565b6111f3600082610f60565b6001600360008573ffffffffffffffffffffffffffffffffffffffff1673ffffffffffffffffffffffffffffffffffffffff16815260200190815260200160002060008282546112439190612ca4565b925050819055506001600360008473ffffffffffffffffffffffffffffffffffffffff1673ffffffffffffffffffffffffffffffffffffffff168152602001908152602001600020600082825461129a9190612bc3565b92505081905550816002600083815260200190815260200160002060006101000a81548173ffffffffffffffffffffffffffffffffffffffff021916908373ffffffffffffffffffffffffffffffffffffffff160217905550808273ffffffffffffffffffffffffffffffffffffffff168473ffffffffffffffffffffffffffffffffffffffff167fddf252ad1be2c89b69c2b068fc378daa952ba7f163c4a11628f55a4df523b3ef60405160405180910390a4611359838383611b08565b505050565b8173ffffffffffffffffffffffffffffffffffffffff168373ffffffffffffffffffffffffffffffffffffffff1614156113cd576040517f08c379a00000000000000000000000000000000000000000000000000000000081526004016113c49061297a565b60405180910390fd5b80600560008573ffffffffffffffffffffffffffffffffffffffff1673ffffffffffffffffffffffffffffffffffffffff16815260200190815260200160002060008473ffffffffffffffffffffffffffffffffffffffff1673ffffffffffffffffffffffffffffffffffffffff16815260200190815260200160002060006101000a81548160ff0219169083151502179055508173ffffffffffffffffffffffffffffffffffffffff168373ffffffffffffffffffffffffffffffffffffffff167f17307eab39ab6107e8899845ad3d59bd9653f200f220920489ca2b5937696c31836040516114be919061287f565b60405180910390a3505050565b6114d68484846110f7565b6114e284848484611b0d565b611521576040517f08c379a0000000000000000000000000000000000000000000000000000000008152600401611518906128fa565b60405180910390fd5b50505050565b606060405180602001604052806000815250905090565b606061154982610eec565b611588576040517f08c379a000000000000000000000000000000000000000000000000000000000815260040161157f90612a9a565b60405180910390fd5b6000611592611527565b905060008151116115b257604051806020016040528060008152506115dd565b806115bc846115e5565b6040516020016115cd9291906126fa565b6040516020818303038152906040525b915050919050565b6060600082141561162d576040518060400160405280600181526020017f3000000000000000000000000000000000000000000000000000000000000000815250905061178d565b600082905060005b6000821461165f57808061164890612df1565b915050600a826116589190612c19565b9150611635565b60008167ffffffffffffffff8111156116a1577f4e487b7100000000000000000000000000000000000000000000000000000000600052604160045260246000fd5b6040519080825280601f01601f1916602001820160405280156116d35781602001600182028036833780820191505090505b5090505b60008514611786576001826116ec9190612ca4565b9150600a856116fb9190612e44565b60306117079190612bc3565b60f81b818381518110611743577f4e487b7100000000000000000000000000000000000000000000000000000000600052603260045260246000fd5b60200101907effffffffffffffffffffffffffffffffffffffffffffffffffffffffffffff1916908160001a905350600a8561177f9190612c19565b94506116d7565b8093505050505b919050565b600081426040516020016117a792919061271e565b6040516020818303038152906040528051906020012060001c9050919050565b600081600001549050919050565b606060008251905060008114156117fe576040518060200160405280600081525091505061198e565b6000600360028361180f9190612bc3565b6118199190612c19565b60046118259190612c4a565b905060006020826118369190612bc3565b67ffffffffffffffff811115611875577f4e487b7100000000000000000000000000000000000000000000000000000000600052604160045260246000fd5b6040519080825280601f01601f1916602001820160405280156118a75781602001600182028036833780820191505090505b5090506000604051806060016040528060408152602001613584604091399050600181016020830160005b8681101561194b5760038101905062ffffff818a015116603f8160121c168401518060081b905060ff603f83600c1c1686015116810190508060081b905060ff603f8360061c1686015116810190508060081b905060ff603f831686015116810190508060e01b905080845260048401935050506118d2565b506003860660018114611965576002811461197557611980565b613d3d60f01b6002830352611980565b603d60f81b60018303525b508484525050819450505050505b919050565b6119ad828260405180602001604052806000815250611ca4565b5050565b6119ba82610eec565b6119f9576040517f08c379a00000000000000000000000000000000000000000000000000000000081526004016119f090612a1a565b60405180910390fd5b80600660008481526020019081526020016000209080519060200190611a20929190611efc565b505050565b6001816000016000828254019250508190555050565b611ad5838383604051602401611a53939291906128bc565b6040516020818303038152906040527fe3849f79000000000000000000000000000000000000000000000000000000007bffffffffffffffffffffffffffffffffffffffffffffffffffffffff19166020820180517bffffffffffffffffffffffffffffffffffffffffffffffffffffffff8381831617835250505050611ada565b505050565b60008151905060006a636f6e736f6c652e6c6f679050602083016000808483855afa5050505050565b505050565b505050565b6000611b2e8473ffffffffffffffffffffffffffffffffffffffff16611cff565b15611c97578373ffffffffffffffffffffffffffffffffffffffff1663150b7a02611b57610f58565b8786866040518563ffffffff1660e01b8152600401611b799493929190612833565b602060405180830381600087803b158015611b9357600080fd5b505af1925050508015611bc457506040513d601f19601f82011682018060405250810190611bc19190612240565b60015b611c47573d8060008114611bf4576040519150601f19603f3d011682016040523d82523d6000602084013e611bf9565b606091505b50600081511415611c3f576040517f08c379a0000000000000000000000000000000000000000000000000000000008152600401611c36906128fa565b60405180910390fd5b805181602001fd5b63150b7a0260e01b7bffffffffffffffffffffffffffffffffffffffffffffffffffffffff1916817bffffffffffffffffffffffffffffffffffffffffffffffffffffffff191614915050611c9c565b600190505b949350505050565b611cae8383611d22565b611cbb6000848484611b0d565b611cfa576040517f08c379a0000000000000000000000000000000000000000000000000000000008152600401611cf1906128fa565b60405180910390fd5b505050565b6000808273ffffffffffffffffffffffffffffffffffffffff163b119050919050565b600073ffffffffffffffffffffffffffffffffffffffff168273ffffffffffffffffffffffffffffffffffffffff161415611d92576040517f08c379a0000000000000000000000000000000000000000000000000000000008152600401611d8990612a3a565b60405180910390fd5b611d9b81610eec565b15611ddb576040517f08c379a0000000000000000000000000000000000000000000000000000000008152600401611dd29061293a565b60405180910390fd5b611de760008383611b03565b6001600360008473ffffffffffffffffffffffffffffffffffffffff1673ffffffffffffffffffffffffffffffffffffffff1681526020019081526020016000206000828254611e379190612bc3565b92505081905550816002600083815260200190815260200160002060006101000a81548173ffffffffffffffffffffffffffffffffffffffff021916908373ffffffffffffffffffffffffffffffffffffffff160217905550808273ffffffffffffffffffffffffffffffffffffffff16600073ffffffffffffffffffffffffffffffffffffffff167fddf252ad1be2c89b69c2b068fc378daa952ba7f163c4a11628f55a4df523b3ef60405160405180910390a4611ef860008383611b08565b5050565b828054611f0890612d8e565b90600052602060002090601f016020900481019282611f2a5760008555611f71565b82601f10611f4357805160ff1916838001178555611f71565b82800160010185558215611f71579182015b82811115611f70578251825591602001919060010190611f55565b5b509050611f7e9190611f82565b5090565b5b80821115611f9b576000816000905550600101611f83565b5090565b6000611fb2611fad84612b3a565b612b15565b905082815260208101848484011115611fca57600080fd5b611fd5848285612d4c565b509392505050565b600081359050611fec81613502565b92915050565b60008135905061200181613519565b92915050565b60008135905061201681613530565b92915050565b60008151905061202b81613530565b92915050565b600082601f83011261204257600080fd5b8135612052848260208601611f9f565b91505092915050565b60008135905061206a81613547565b92915050565b60006020828403121561208257600080fd5b600061209084828501611fdd565b91505092915050565b600080604083850312156120ac57600080fd5b60006120ba85828601611fdd565b92505060206120cb85828601611fdd565b9150509250929050565b6000806000606084860312156120ea57600080fd5b60006120f886828701611fdd565b935050602061210986828701611fdd565b925050604061211a8682870161205b565b9150509250925092565b6000806000806080858703121561213a57600080fd5b600061214887828801611fdd565b945050602061215987828801611fdd565b935050604061216a8782880161205b565b925050606085013567ffffffffffffffff81111561218757600080fd5b61219387828801612031565b91505092959194509250565b600080604083850312156121b257600080fd5b60006121c085828601611fdd565b92505060206121d185828601611ff2565b9150509250929050565b600080604083850312156121ee57600080fd5b60006121fc85828601611fdd565b925050602061220d8582860161205b565b9150509250929050565b60006020828403121561222957600080fd5b600061223784828501612007565b91505092915050565b60006020828403121561225257600080fd5b60006122608482850161201c565b91505092915050565b60006020828403121561227b57600080fd5b60006122898482850161205b565b91505092915050565b61229b81612cd8565b82525050565b6122aa81612cea565b82525050565b60006122bb82612b80565b6122c58185612b96565b93506122d5818560208601612d5b565b6122de81612f31565b840191505092915050565b60006122f482612b8b565b6122fe8185612ba7565b935061230e818560208601612d5b565b61231781612f31565b840191505092915050565b600061232d82612b8b565b6123378185612bb8565b9350612347818560208601612d5b565b80840191505092915050565b6000815461236081612d8e565b61236a8186612bb8565b945060018216600081146123855760018114612396576123c9565b60ff198316865281860193506123c9565b61239f85612b6b565b60005b838110156123c1578154818901526001820191506020810190506123a2565b838801955050505b50505092915050565b60006123df605883612bb8565b91506123ea82612f42565b605882019050919050565b6000612402603283612ba7565b915061240d82612fb7565b604082019050919050565b6000612425601383612bb8565b915061243082613006565b601382019050919050565b6000612448602583612ba7565b91506124538261302f565b604082019050919050565b600061246b601c83612ba7565b91506124768261307e565b602082019050919050565b600061248e602483612ba7565b9150612499826130a7565b604082019050919050565b60006124b1601983612ba7565b91506124bc826130f6565b602082019050919050565b60006124d4602c83612ba7565b91506124df8261311f565b604082019050919050565b60006124f7600a83612bb8565b91506125028261316e565b600a82019050919050565b600061251a603883612ba7565b915061252582613197565b604082019050919050565b600061253d602a83612ba7565b9150612548826131e6565b604082019050919050565b6000612560602983612ba7565b915061256b82613235565b604082019050919050565b6000612583602e83612ba7565b915061258e82613284565b604082019050919050565b60006125a6600283612bb8565b91506125b1826132d3565b600282019050919050565b60006125c9602083612ba7565b91506125d4826132fc565b602082019050919050565b60006125ec603183612ba7565b91506125f782613325565b604082019050919050565b600061260f602c83612ba7565b915061261a82613374565b604082019050919050565b6000612632602f83612ba7565b915061263d826133c3565b604082019050919050565b6000612655600a83612bb8565b915061266082613412565b600a82019050919050565b6000612678602183612ba7565b91506126838261343b565b604082019050919050565b600061269b601d83612bb8565b91506126a68261348a565b601d82019050919050565b60006126be603183612ba7565b91506126c9826134b3565b604082019050919050565b6126dd81612d42565b82525050565b6126f46126ef82612d42565b612e3a565b82525050565b60006127068285612322565b91506127128284612322565b91508190509392505050565b600061272a8285612322565b915061273682846126e3565b6020820191508190509392505050565b60006127528286612353565b915061275e8285612322565b915061276a8284612353565b9150819050949350505050565b6000612782826124ea565b915061278e8285612322565b915061279a8284612322565b91508190509392505050565b60006127b182612648565b91506127bc82612418565b91506127c88285612322565b91506127d3826123d2565b91506127df8284612322565b91506127ea82612599565b91508190509392505050565b60006128018261268e565b915061280d8284612322565b915081905092915050565b600060208201905061282d6000830184612292565b92915050565b60006080820190506128486000830187612292565b6128556020830186612292565b61286260408301856126d4565b818103606083015261287481846122b0565b905095945050505050565b600060208201905061289460008301846122a1565b92915050565b600060208201905081810360008301526128b481846122e9565b905092915050565b600060608201905081810360008301526128d681866122e9565b90506128e560208301856126d4565b6128f26040830184612292565b949350505050565b60006020820190508181036000830152612913816123f5565b9050919050565b600060208201905081810360008301526129338161243b565b9050919050565b600060208201905081810360008301526129538161245e565b9050919050565b6000602082019050818103600083015261297381612481565b9050919050565b60006020820190508181036000830152612993816124a4565b9050919050565b600060208201905081810360008301526129b3816124c7565b9050919050565b600060208201905081810360008301526129d38161250d565b9050919050565b600060208201905081810360008301526129f381612530565b9050919050565b60006020820190508181036000830152612a1381612553565b9050919050565b60006020820190508181036000830152612a3381612576565b9050919050565b60006020820190508181036000830152612a53816125bc565b9050919050565b60006020820190508181036000830152612a73816125df565b9050919050565b60006020820190508181036000830152612a9381612602565b9050919050565b60006020820190508181036000830152612ab381612625565b9050919050565b60006020820190508181036000830152612ad38161266b565b9050919050565b60006020820190508181036000830152612af3816126b1565b9050919050565b6000602082019050612b0f60008301846126d4565b92915050565b6000612b1f612b30565b9050612b2b8282612dc0565b919050565b6000604051905090565b600067ffffffffffffffff821115612b5557612b54612f02565b5b612b5e82612f31565b9050602081019050919050565b60008190508160005260206000209050919050565b600081519050919050565b600081519050919050565b600082825260208201905092915050565b600082825260208201905092915050565b600081905092915050565b6000612bce82612d42565b9150612bd983612d42565b9250827fffffffffffffffffffffffffffffffffffffffffffffffffffffffffffffffff03821115612c0e57612c0d612e75565b5b828201905092915050565b6000612c2482612d42565b9150612c2f83612d42565b925082612c3f57612c3e612ea4565b5b828204905092915050565b6000612c5582612d42565b9150612c6083612d42565b9250817fffffffffffffffffffffffffffffffffffffffffffffffffffffffffffffffff0483118215151615612c9957612c98612e75565b5b828202905092915050565b6000612caf82612d42565b9150612cba83612d42565b925082821015612ccd57612ccc612e75565b5b828203905092915050565b6000612ce382612d22565b9050919050565b60008115159050919050565b60007fffffffff0000000000000000000000000000000000000000000000000000000082169050919050565b600073ffffffffffffffffffffffffffffffffffffffff82169050919050565b6000819050919050565b82818337600083830152505050565b60005b83811015612d79578082015181840152602081019050612d5e565b83811115612d88576000848401525b50505050565b60006002820490506001821680612da657607f821691505b60208210811415612dba57612db9612ed3565b5b50919050565b612dc982612f31565b810181811067ffffffffffffffff82111715612de857612de7612f02565b5b80604052505050565b6000612dfc82612d42565b91507fffffffffffffffffffffffffffffffffffffffffffffffffffffffffffffffff821415612e2f57612e2e612e75565b5b600182019050919050565b6000819050919050565b6000612e4f82612d42565b9150612e5a83612d42565b925082612e6a57612e69612ea4565b5b828206905092915050565b7f4e487b7100000000000000000000000000000000000000000000000000000000600052601160045260246000fd5b7f4e487b7100000000000000000000000000000000000000000000000000000000600052601260045260246000fd5b7f4e487b7100000000000000000000000000000000000000000000000000000000600052602260045260246000fd5b7f4e487b7100000000000000000000000000000000000000000000000000000000600052604160045260246000fd5b6000601f19601f8301169050919050565b7f222c20226465736372697074696f6e223a202246726f6d20435050204641535460008201527f20426c6f636b636861696e20436c75622e222c2022696d616765223a2022646160208201527f74613a696d6167652f7376672b786d6c3b6261736536342c0000000000000000604082015250565b7f4552433732313a207472616e7366657220746f206e6f6e20455243373231526560008201527f63656976657220696d706c656d656e7465720000000000000000000000000000602082015250565b7f46617374204c6f676f2045646974696f6e202300000000000000000000000000600082015250565b7f4552433732313a207472616e736665722066726f6d20696e636f72726563742060008201527f6f776e6572000000000000000000000000000000000000000000000000000000602082015250565b7f4552433732313a20746f6b656e20616c7265616479206d696e74656400000000600082015250565b7f4552433732313a207472616e7366657220746f20746865207a65726f2061646460008201527f7265737300000000000000000000000000000000000000000000000000000000602082015250565b7f4552433732313a20617070726f766520746f2063616c6c657200000000000000600082015250565b7f4552433732313a206f70657261746f7220717565727920666f72206e6f6e657860008201527f697374656e7420746f6b656e0000000000000000000000000000000000000000602082015250565b7f6172726179415343494900000000000000000000000000000000000000000000600082015250565b7f4552433732313a20617070726f76652063616c6c6572206973206e6f74206f7760008201527f6e6572206e6f7220617070726f76656420666f7220616c6c0000000000000000602082015250565b7f4552433732313a2062616c616e636520717565727920666f7220746865207a6560008201527f726f206164647265737300000000000000000000000000000000000000000000602082015250565b7f4552433732313a206f776e657220717565727920666f72206e6f6e657869737460008201527f656e7420746f6b656e0000000000000000000000000000000000000000000000602082015250565b7f45524337323155524953746f726167653a2055524920736574206f66206e6f6e60008201527f6578697374656e7420746f6b656e000000000000000000000000000000000000602082015250565b7f227d000000000000000000000000000000000000000000000000000000000000600082015250565b7f4552433732313a206d696e7420746f20746865207a65726f2061646472657373600082015250565b7f45524337323155524953746f726167653a2055524920717565727920666f722060008201527f6e6f6e6578697374656e7420746f6b656e000000000000000000000000000000602082015250565b7f4552433732313a20617070726f76656420717565727920666f72206e6f6e657860008201527f697374656e7420746f6b656e0000000000000000000000000000000000000000602082015250565b7f4552433732314d657461646174613a2055524920717565727920666f72206e6f60008201527f6e6578697374656e7420746f6b656e0000000000000000000000000000000000602082015250565b7f7b226e616d65223a202200000000000000000000000000000000000000000000600082015250565b7f4552433732313a20617070726f76616c20746f2063757272656e74206f776e6560008201527f7200000000000000000000000000000000000000000000000000000000000000602082015250565b7f646174613a6170706c69636174696f6e2f6a736f6e3b6261736536342c000000600082015250565b7f4552433732313a207472616e736665722063616c6c6572206973206e6f74206f60008201527f776e6572206e6f7220617070726f766564000000000000000000000000000000602082015250565b61350b81612cd8565b811461351657600080fd5b50565b61352281612cea565b811461352d57600080fd5b50565b61353981612cf6565b811461354457600080fd5b50565b61355081612d42565b811461355b57600080fd5b5056fe416e204e465420772f20494420257320686173206265656e206d696e74656420746f2025734142434445464748494a4b4c4d4e4f505152535455565758595a6162636465666768696a6b6c6d6e6f707172737475767778797a303132333435363738392b2fa264697066735822122058888047cd50fe8fd73164db4f88dfcf9c2dc73d350330dcbdbbc832d54bc6ad64736f6c634300080400333c7376672069643d274c617965725f312720646174612d6e616d653d274c6179657220312720786d6c6e733d27687474703a2f2f7777772e77332e6f72672f323030302f737667272076696577426f783d27302030203330203330273e3c646566733e3c7374796c653e2e636c732d317b66696c6c3a233b7d3c2f7374796c653e3c2f646566733e3c7061746820636c6173733d27636c732d312720643d274d3531352e352c3535302e3637762d33306833307633305a6d31322e39312d31332e38342e30372c3063302c2e30352c302c2e31312d2e30372e31342d2e322e31372d2e342e33342d2e36312e3439612e31392e31392c302c302c312d2e31392c302c2e342e342c302c302c302d2e35352c306c2d312e31322e3931632d2e36322e35322d312e32362c312d312e38382c312e35342d2e31382e31342d2e31382e32342c302c2e3431732e34392e362e37332e3931632e31312e31342e31352e31342e32392c306c312e32342d312c312e38342d312e35612e33392e33392c302c302c302c2e31342d2e35312e31372e31372c302c302c312c2e30362d2e3232632e31352d2e31312e32392d2e32332e34332d2e3335732e32322d2e31382e34312c3061332e372c332e372c302c302c302c322e33312c312e322c342c342c302c302c302c322e31352d2e32352c342e33362c342e33362c302c302c302c322e35322d3563302d2e32362d2e31352d2e35312d2e32332d2e3738682e353476342e363968312e3239762d2e313963302d312e34342c302d322e38382c302d342e33322c302d2e31362c302d2e322e322d2e313968312e363663302d2e32382c302d2e35342c302d2e38732d2e30352d2e31392d2e31392d2e3139682d332e39612e35332e35332c302c302c312d2e33392d2e31362c352e392c352e392c302c302c302d2e382d2e372c342c342c302c302c302d332e32352d2e35352c342c342c302c302c302d322e322c312e34352c352e32342c352e32342c302c302c302d2e35352e39312c392e33322c392e33322c302c302c302d2e33342e38376c2d312d32682d2e30366c2d322e38392c352e3968312e3135612e32392e32392c302c302c302c2e31332d2e31322c362e30372c362e30372c302c302c302c2e32342d2e35392e32312e32312c302c302c312c2e32322d2e313648353238612e34372e34372c302c302c312c2e31372c305a6d2d332e37342d322e3535682d312e3535732d2e31332c302d2e31332d2e303863302d2e34312c302d2e38322c302d312e323668312e3837632e31312c302c2e31352c302c2e31352d2e313573302d2e352c302d2e37342c302d2e31372d2e31372d2e3137483532312e39632d2e31352c302d2e31382e30352d2e31382e31392c302c312e37382c302c332e35362c302c352e333461312c312c302c302c302c302c2e313748353233762d322e323668312e36395a27207472616e73666f726d3d277472616e736c617465282d3531352e35202d3532302e363729272f3e3c7061746820643d274d3532382e34312c3533362e38336c2d2e32352d2e3037612e34372e34372c302c302c302d2e31372c30682d322e32612e32312e32312c302c302c302d2e32322e31362c362e30372c362e30372c302c302c312d2e32342e35392e32392e32392c302c302c312d2e31332e3132682d312e31356c322e38392d352e39483532376c312c3261392e33322c392e33322c302c302c312c2e33342d2e38372c352e32342c352e32342c302c302c312c2e35352d2e39312c342c342c302c302c312c322e322d312e34352c342c342c302c302c312c332e32352e35352c352e392c352e392c302c302c312c2e382e372e35332e35332c302c302c302c2e33392e313668332e39632e31342c302c2e322c302c2e31392e313973302c2e35322c302c2e38682d312e3636632d2e31352c302d2e322c302d2e322e31392c302c312e34342c302c322e38382c302c342e3332762e3139682d312e3239563533322e39682d2e3534632e30382e32372e31382e35322e32332e373861342e33362c342e33362c302c302c312d322e35322c352c342c342c302c302c312d322e31352e32352c332e372c332e372c302c302c312d322e33312d312e32632d2e31392d2e322d2e31392d2e322d2e34312c30732d2e32382e32342d2e34332e3335612e31372e31372c302c302c302d2e30362e32322e33392e33392c302c302c312d2e31342e35316c2d312e38342c312e352d312e32342c31632d2e31342e31312d2e31382e31312d2e32392c302d2e32342d2e33312d2e34382d2e36312d2e37332d2e3931732d2e31342d2e32372c302d2e3431632e36322d2e35312c312e32362d312c312e38382d312e35346c312e31322d2e3931612e342e342c302c302c312c2e35352c302c2e31392e31392c302c302c302c2e31392c30632e32312d2e31352e34312d2e33322e36312d2e34392c302c302c302d2e30392e30372d2e31345a6d332e36372d362e3035632d2e32322c302d2e34352c302d2e36372e303561332e39312c332e39312c302c302c302d332e30372c332e342c342c342c302c302c302c2e35362c322e34392c332e35382c332e35382c302c302c302c322e35322c312e37362c332e35332c332e35332c302c302c302c332e31312d2e38392c332e38362c332e38362c302c302c302c312e32372d322e34312c342c342c302c302c302d2e32382d322e303641332e37372c332e37372c302c302c302c3533322e30382c3533302e37385a6d2d352e31352c3368306c2d2e38362c3268312e37385a27207472616e73666f726d3d277472616e736c617465282d3531352e35202d3532302e363729272f3e3c7061746820643d274d3532342e36372c3533342e323876312e30354835323376322e3236682d312e323461312c312c302c302c312c302d2e313763302d312e37382c302d332e35362c302d352e33342c302d2e31342c302d2e31392e31382d2e313968322e3933632e31322c302c2e31382c302c2e31372e313773302c2e34392c302c2e37342c302c2e31352d2e31352e31354835323363302c2e34342c302c2e38352c302c312e32362c302c302c2e30382e30382e31332e303868312e35355a27207472616e73666f726d3d277472616e736c617465282d3531352e35202d3532302e363729272f3e3c7061746820636c6173733d27636c732d312720643d274d3533322e30382c3533302e373861332e37372c332e37372c302c302c312c332e34342c322e33342c342c342c302c302c312c2e32382c322e30362c332e38362c332e38362c302c302c312d312e32372c322e34312c332e35332c332e35332c302c302c312d332e31312e38392c332e35382c332e35382c302c302c312d322e35322d312e37362c342c342c302c302c312d2e35362d322e34392c332e39312c332e39312c302c302c312c332e30372d332e34433533312e36332c3533302e37392c3533312e38362c3533302e382c3533322e30382c3533302e37385a6d2d312e38362c352e3331762e3263302c2e33392c302c2e37392e30372c312e3138612e31352e31352c302c302c302c2e31342e3136632e31322c302c2e32332e30362e33352e303961332e31372c332e31372c302c302c302c322c302c312e37382c312e37382c302c302c302c2e32392d332e3233632d2e33382d2e32352d2e382d2e34352d312e31392d2e363961312e36362c312e36362c302c302c312d2e33342d2e32352e34342e34342c302c302c312c2e31312d2e37332e37362e37362c302c302c312c2e33332d2e30382c322e34352c322e34352c302c302c312c312e31382e33346c2e33352e313963302d2e34332c302d2e38322c302d312e32612e322e322c302c302c302d2e31332d2e31352c332e372c332e372c302c302c302d322d2e31372c312e35362c312e35362c302c302c302d312e31382c312e39332c312e38322c312e38322c302c302c302c2e38392c312e31632e33392e32342e37392e34362c312e31382e3639612e37352e37352c302c302c312c2e342e35322e35392e35392c302c302c312d2e35392e36372c322e31392c322e31392c302c302c312d312e33352d2e32355a27207472616e73666f726d3d277472616e736c617465282d3531352e35202d3532302e363729272f3e3c7061746820636c6173733d27636c732d312720643d274d3532362e39332c3533332e38326c2e38372c32483532366c2e38362d325a27207472616e73666f726d3d277472616e736c617465282d3531352e35202d3532302e363729272f3e3c7061746820643d274d3533302e32322c3533362e30396c2e35312e323861322e31392c322e31392c302c302c302c312e33352e32352e35392e35392c302c302c302c2e35392d2e36372e37352e37352c302c302c302d2e342d2e3532632d2e33392d2e32332d2e37392d2e34352d312e31382d2e363961312e38322c312e38322c302c302c312d2e38392d312e312c312e35362c312e35362c302c302c312c312e31382d312e39332c332e372c332e372c302c302c312c322c2e31372e322e322c302c302c312c2e31332e313563302c2e33382c302c2e37372c302c312e326c2d2e33352d2e313961322e34352c322e34352c302c302c302d312e31382d2e33342e37362e37362c302c302c302d2e33332e30382e34342e34342c302c302c302d2e31312e37332c312e36362c312e36362c302c302c302c2e33342e3235632e33392e32342e38312e34342c312e31392e363961312e37382c312e37382c302c302c312d2e32392c332e32332c332e31372c332e31372c302c302c312d322c30632d2e31322c302d2e32332d2e30372d2e33352d2e3039612e31352e31352c302c302c312d2e31342d2e313663302d2e33392c302d2e37392d2e30372d312e31385a27207472616e73666f726d3d277472616e736c617465282d3531352e35202d3532302e363729272f3e3c2f7376673e",
  "linkReferences": {},
  "deployedLinkReferences": {}
}